S01C0000486F766572626F617264436F6E74726F6C6C65722E73726563D8
S11300000C9434000C9446000C9446000C94460066
S11300100C9446000C9446000C9446000C94460044
S11300200C9446000C9446000C9446000C94460034
S11300300C9446000C9446000C9446000C94460024
S11300400C94EF000C9446000C945C000C94460055
S11300500C9446000C9446000C9446000C94460004
S11300600C9446000C94460011241FBECFEFD8E038
S1130070DEBFCDBF21E0A0E0B1E001C01D92A132FE
S1130080B207E1F70E94B7010C94CB020C94000074
S1130090ECE7F0E09081987F8770892B8083EAE712
S11300A0F0E0808180648083808186FDFDCF809133
S11300B078009091790008951F920F920FB60F92D5
S11300C01124DF92EF92FF920F931F932F933F938C
S11300D04F935F936F937F938F939F93AF93BF934C
S11300E0CF93DF93EF93FF93D0E0C0E004E111E0FE
S11300F00F2EFCE4DF2EF02DEE24E394F12C0E946D
S11301005D028C34A1F4F801D0820E945D02F801F2
S113011081830E945D02F80182838D2D0E94550225
S1130120E0920201F09203018E2D9F2D3DC0843494
S113013099F4C4E1D1E088830E945D0289830E941E
S11301405D028A8384E40E94550281E090E09093EA
S11301500301809302012BC08B3421F5C4E1D1E06B
S113016088830E945D0289830E945D028A832981BB
S113017030E020533109A901440F551F220F331FCA
S1130180220F331F220F331F240F351F90E0C09717
S1130190280F391F30931E0120931D018BE40E9408
S11301A0550205C08D2F9C2F892B09F4A8CFFF91F0
S11301B0EF91DF91CF91BF91AF919F918F917F91FB
S11301C06F915F914F913F912F911F910F91FF90EC
S11301D0EF90DF900F900FBE0F901F9018951F9215
S11301E00F920FB60F9211242F933F938F939F93E7
S11301F0EF93FF9380911701909118010196843633
S113020091052CF49093180180931701A5C01092C6
S11302101801109217018091020190910301019736
S113022099F51092030110920201E4E1F1E0818159
S113023090E0C0979C01220F331F880F991F880FED
S1130240991F880F991F820F931F228130E020533A
S11302503109820F931F90931A01809319018081B1
S11302608C3439F481E090E090931C0180931B015D
S113027026C0843449F410921C0110921B01109280
S11302801A011092190147C080911B0190911C0121
S1130290039779F410921A01109219011092010136
S11302A01092000182E090E090931C0180931B0166
S11302B050C080911B0190911C01019761F5209120
S11302C00001309101018091190190911A01821766
S11302D0930734F421503109309301012093000134
S11302E020910001309101012817390734F42F5F60
S11302F03F4F309301012093000120910001309180
S113030001018217930729F582E090E090931C0184
S113031080931B011EC080911B0190911C01892BAD
S1130320C1F48091000190910101843091052CF079
S113033004979093010180930001809100019091B2
S11303400101892B31F482E090E090931C018093A9
S11303501B018091000188BDFF91EF919F918F91C6
S11303603F912F910F900FBE0F901F9018958FEF14
S113037084B98AB987E690E00E944802E1ECF0E093
S113038080818068808386E085BD81E080936E00F3
S113039080E480937C0087E880937A0083E684BDC0
S11303A08BE085BD84E687BD18BC789404E610E034
S11303B0C3E0D0E0109213011092120110922001B8
S11303C010921F011092040110920501109206016F
S11303D01092070180E00E9448009C01220F331F05
S11303E0880F991F880F991F880F991F820F931FD9
S11303F0909313018093120181E00E9448009C01B4
S1130400220F331F880F991F880F991F880F991F78
S1130410820F931F9093200180931F01609112011A
S113042070911301681B790B072E000C880B990B34
S11304300E9467026B017C016093040170930501C3
S1130440809306019093070160911D0170911E0134
S1130450072E000C880B990B0E9467029B01AC01CC
S1130460C701B6010E94A20288235CF01093180110
S113047000931701D0931C01C0931B0185E40E94D3
S113048055028FE39CE90197F1F700C0000092CF79
S11304909093C5008093C4001092C00088E18093BB
S11304A0C10086E08093C2000895E0ECF0E0908102
S11304B095FFFDCF8093C6000895E0ECF0E08081C5
S11304C08823ECF78091C6000895E89409C097FB4F
S11304D03EF490958095709561957F4F8F4F9F4F17
S11304E09923A9F0F92F96E9BB279395F69587955B
S11304F077956795B795F111F8CFFAF4BB0F11F41E
S113050060FF1BC06F5F7F4F8F4F9F4F16C08823C4
S113051011F096E911C0772321F09EE8872F762FFA
S113052005C0662371F096E8862F70E060E02AF03B
S11305309A95660F771F881FDAF7880F9695879527
S113054097F908950E94A70208F48FEF0895990F70
S11305500008550FAA0BE0E8FEEF16161706E80789
S1130560F907C0F012161306E407F50798F0621BAA
S1130570730B840B950B39F40A2661F0232B242B7F
S1130580252B21F408950A2609F4A140A6958FEF9E
S10D0590811D811D0895F894FFCF2A
S9030000FC
