:100000000C9434000C9451000C9451000C94510049
:100010000C9451000C9451000C9451000C9451001C
:100020000C9451000C9451000C9451000C9451000C
:100030000C9451000C9451000C9451000C945100FC
:100040000C941F010C9451000C9466000C94510008
:100050000C9451000C9451000C9451000C945100DC
:100060000C9451000C94510011241FBECFEFD8E026
:10007000DEBFCDBF11E0A0E0B1E0E4E6F7E002C0F2
:1000800005900D92A430B107D9F721E0A4E0B1E0CA
:1000900001C01D92A232B207E1F70E94E7010C9461
:1000A000B0030C940000ECE7F0E09081987F892B7E
:1000B0008083EAE7F0E0808180648083808186FD30
:1000C000FDCF809178009091790008951F920F9252
:1000D0000FB60F921124CF92DF92EF92FF920F93FF
:1000E0001F932F933F934F935F936F937F938F93C0
:1000F0009F93AF93BF93CF93DF93EF93FF93D0E0A2
:10010000C0E00F2EF2E1EF2EF1E0FF2EF02D0F2ECA
:10011000FCE4CF2EF02D01E010E00F2EF2E5DF2EF3
:10012000F02D0E943C038C34B9F4F701C0820E9488
:100130003C03F70181830E943C03F7018283009313
:10014000080110930901D0921B010093060110933E
:100150000701802F912F57C08434B9F4C2E1D1E058
:1001600088830E943C0389830E943C038A8381E048
:1001700090E0909309018093080122E520931B01F0
:10018000909307018093060141C08B34D1F5C2E101
:10019000D1E088830E943C0389830E943C038A83C8
:1001A000498150E0405351099A01220F331F440FF7
:1001B000551F440F551F440F551F240F351F90E046
:1001C000C097280F391FC901880F991F220F331FAD
:1001D000220F331F220F331F820F931F9E5F9093B6
:1001E0000101809300016CE071E00E94440381E012
:1001F00090E0909309018093080182E580931B01B0
:1002000005C08D2F9C2F892B09F48BCFFF91EF9187
:10021000DF91CF91BF91AF919F918F917F916F911E
:100220005F914F913F912F911F910F91FF90EF9010
:10023000DF90CF900F900FBE0F901F9018951F92D8
:100240000F920FB60F9211242F933F938F939F938A
:10025000EF93FF93809115019091160101968436DA
:1002600091052CF49093160180931501A5C010926E
:1002700016011092150180910601909107010197D6
:1002800099F51092070110920601E2E1F1E08181F7
:1002900090E0C0979C01220F331F880F991F880F91
:1002A000991F880F991F820F931F228130E02053DE
:1002B0003109820F931F9093180180931701808159
:1002C0008C3439F481E090E090931D0180931C01FF
:1002D00026C0843449F410921D0110921C01109222
:1002E00018011092170147C080911C0190911D01C7
:1002F000039779F4109218011092170110920501DA
:100300001092040182E090E090931D0180931C0103
:1003100050C080911C0190911D01019761F52091C1
:100320000401309105018091170190911801821705
:10033000930734F4215031093093050120930401CF
:1003400020910401309105012817390734F42F5FFB
:100350003F4F309305012093040120910401309117
:1003600005018217930729F582E090E090931D0123
:1003700080931C011EC080911C0190911D01892B4E
:10038000C1F48091040190910501843091052CF015
:10039000049790930501809304018091040190914A
:1003A0000501892B31F482E090E090931D01809348
:1003B0001C018091040188BDFF91EF919F918F9165
:1003C0003F912F910F900FBE0F901F9018958FEFB8
:1003D00084B98AB987E690E00E942703E1ECF0E057
:1003E00080818068808386E085BD81E080936E0097
:1003F00080E480937C0087E880937A0083E684BD64
:100400008BE085BD84E687BD18BC7894CAE0D0E057
:100410000F2EFFE4CF2EF02DEE24E394F12C0F2EBF
:10042000F5E4DF2EF02D04E610E010921101109299
:10043000100110920B0110920A0184E00E945300F7
:100440002091100130911101820F931F909311019F
:100450008093100125E32A95F1F7000080910A01AD
:1004600090910B01019690930B0180930A010A97DA
:1004700024F38091100190911101BE010E94790333
:1004800070931A016093190180E00E9453009C014F
:10049000220F331F880F991F880F991F880F991FEC
:1004A000820F931F90931F0180931E0120911901C9
:1004B00030911A0140910001509101012417350734
:1004C000A4F040911C0150911D01452B71F0109238
:1004D0001D0110921C01F0920901E0920801D092D6
:1004E0001B011093160100931501273F3140BCF406
:1004F00084339741A4F080911C0190911D01892BB8
:1005000071F010921D0110921C01F0920901E0920D
:100510000801C0921B0110931601009315018FE989
:100520009FE00197F1F700C00000809108019091D1
:100530000901019791F4109209011092080110929B
:1005400021011092200180911B010E9434038DE053
:100550000E9434038AE00E9434038091200190912C
:10056000210101969093210180932001843F9140C5
:100570000CF45BCF109221011092200180910201B6
:1005800090910301019690930301809302018230C0
:1005900091052CF0109203011092020102C0892BE8
:1005A00039F56CE071E08091190190911A010E9477
:1005B000440389E40E9434030F2EFCE0AF2EF1E0E7
:1005C000BF2EF02DF50183810E943403F501828155
:1005D0000E943403F50181810E943403F50180817A
:1005E0000E9434038DE00E9434038AE00E943403A9
:1005F0008091020190910301019709F016CF6CE000
:1006000071E080911E0190911F010E94440386E5D4
:100610000E9434030F2EFCE0AF2EF1E0BF2EF02D30
:10062000F50183810E943403F50182810E94340325
:10063000F50181810E943403F50180810E94340319
:100640008DE00E9434038AE00E943403EECE909342
:10065000C5008093C4001092C00088E18093C1005F
:1006600086E08093C2000895E0ECF0E0908195FF71
:10067000FDCF8093C6000895E0ECF0E080818823F0
:10068000ECF78091C6000895AC01FB01DB019B01F2
:100690002B5F3F4F80E38D93A217B307E1F79A01D9
:1006A000ADECBCEC0E948D03969587959695879549
:1006B000969587959C01220F331F880F991F880FED
:1006C000991F880F991F820F931F9A01281B390BBE
:1006D000C901805D81939A010E948D03AC015695FA
:1006E0004795569547955695479541155105B9F645
:1006F000089597FB072E16F4009407D077FD09D0D4
:100700000E949C0307FC05D03EF4909581959F4F75
:100710000895709561957F4F0895A29FB001B39F92
:10072000C001A39F700D811D1124911DB29F700DFA
:10073000811D1124911D0895AA1BBB1B51E107C007
:10074000AA1FBB1FA617B70710F0A61BB70B881F61
:10075000991F5A95A9F780959095BC01CD010895F0
:04076000F894FFCF3B
:040764005802FFFF39
:00000001FF
