:100000000C9434000C9446000C9446000C9446006A
:100010000C9446000C9446000C9446000C94460048
:100020000C9446000C9446000C9446000C94460038
:100030000C9446000C9446000C9446000C94460028
:100040000C9414010C9446000C945B000C94460034
:100050000C9446000C9446000C9446000C94460008
:100060000C9446000C94460011241FBECFEFD8E03C
:10007000DEBFCDBF21E0A0E0B1E001C01D92AD31F7
:10008000B207E1F70E94DC010C9468030C940000B5
:10009000ECE7F0E09081987F892B8083EAE7F0E03D
:1000A000808180648083808186FDFDCF809178008F
:1000B0009091790008951F920F920FB60F9211241C
:1000C000DF92EF92FF920F931F932F933F934F93E3
:1000D0005F936F937F938F939F93AF93BF93CF93D0
:1000E000DF93EF93FF93D0E0C0E00CE011E00F2E20
:1000F000FCE4DF2EF02DEE24E394F12C0E94F402B8
:100100008C34A1F4F801D0820E94F402F8018183BA
:100110000E94F402F80182838D2D0E94EC02E0928D
:100120000201F09203018E2D9F2D63C0843499F457
:10013000CCE0D1E088830E94F40289830E94F4021B
:100140008A8384E40E94EC0281E090E090930301B2
:100150008093020151C08B3409F049C0CCE0D1E05A
:1001600088830E94F40289830E94F4028A83498171
:1001700050E0405351099A01220F331F440F551F7D
:10018000440F551F440F551F240F351F90E0C09793
:10019000280F391FC901880F991F220F331F220F03
:1001A000331F220F331F820F931F845F9D4F909345
:1001B0001A018093190166E071E00E94FC028BE451
:1001C0000E94EC028AE30E94EC02C6E0D1E08B813F
:1001D0000E94EC028A810E94EC0289810E94EC025A
:1001E00088810E94EC028AE00E94EC0205C08D2FFB
:1001F0009C2F892B09F482CFFF91EF91DF91CF9152
:10020000BF91AF919F918F917F916F915F914F912E
:100210003F912F911F910F91FF90EF90DF900F90E2
:100220000FBE0F901F9018951F920F920FB60F924E
:1002300011242F933F938F939F93EF93FF9380917C
:100240000F01909110010196843691052CF4909342
:10025000100180930F01A5C01092100110920F01A0
:100260008091020190910301019799F51092030189
:1002700010920201ECE0F1E0818190E0C0979C01D6
:10028000220F331F880F991F880F991F880F991FFE
:10029000820F931F228130E020533109820F931F78
:1002A000909312018093110180818C3439F481E0A4
:1002B00090E0909316018093150126C0843449F490
:1002C0001092160110921501109212011092110154
:1002D00047C08091150190911601039779F410920F
:1002E000120110921101109201011092000182E09E
:1002F00090E0909316018093150150C080911501F4
:1003000090911601019761F5209100013091010152
:1003100080911101909112018217930734F42150BA
:1003200031093093010120930001209100013091A7
:1003300001012817390734F42F5F3F4F3093010133
:100340002093000120910001309101018217930751
:1003500029F582E090E090931601809315011EC06C
:100360008091150190911601892BC1F480910001B3
:1003700090910101843091052CF004979093010134
:10038000809300018091000190910101892B31F44B
:1003900082E090E090931601809315018091000116
:1003A00088BDFF91EF919F918F913F912F910F9079
:1003B0000FBE0F901F9018958FEF84B98AB987E60A
:1003C00090E00E94DF02E1ECF0E0808180688083B1
:1003D00086E085BD81E080936E0080E480937C00A0
:1003E00087E880937A0083E684BD8BE085BD84E650
:1003F00087BD18BC7894CAE0D0E004E610E0109203
:100400000B0110920A01109205011092040184E080
:100410000E94480020910A0130910B01820F931F26
:1004200090930B0180930A0125E32A95F1F70000D0
:1004300080910401909105010196909305018093AC
:1004400004010A9724F380910A0190910B01BE01E7
:100450000E943103709314016093130180E00E94A5
:1004600048009C01220F331F880F991F880F991F86
:10047000880F991F820F931F909318018093170183
:1004800020911301309114018091190190911A016A
:1004900028173907C4F08091150190911601892B16
:1004A00091F01092100110920F011092160110920B
:1004B000150185E40E94EC028AE00E94EC02109390
:1004C000100100930F01809113019091140183306A
:1004D0009240FCF480911701909118018433974168
:1004E000C4F08091150190911601892B91F0109222
:1004F000100110920F0110921601109215018FE455
:100500000E94EC028AE00E94EC021093100100931A
:100510000F018FE99FE00197F1F700C00000809183
:100520001B0190911C01019690931C0180931B016B
:100530008A3F91050CF463CF10921C0110921B01AD
:100540008AE00E94EC0266E071E0809113019091D4
:1005500014010E94FC020F2EF6E0EF2EF1E0FF2EB8
:10056000F02DF70183810E94EC02F70182810E9445
:10057000EC02F70181810E94EC02F70180810E9468
:10058000EC028AE00E94EC02B70180911701909181
:1005900018010E94FC02F70183810E94EC02F7011E
:1005A00082810E94EC02F70181810E94EC02F70136
:1005B00080810E94EC028AE00E94EC0220CF90939E
:1005C000C5008093C4001092C00088E18093C100F0
:1005D00086E08093C2000895E0ECF0E0908195FF02
:1005E000FDCF8093C6000895E0ECF0E08081882381
:1005F000ECF78091C6000895AC01FB01DB019B0183
:100600002B5F3F4F80E38D93A217B307E1F79A0169
:10061000ADECBCEC0E944503969587959695879521
:10062000969587959C01220F331F880F991F880F7D
:10063000991F880F991F820F931F9A01281B390B4E
:10064000C901805D81939A010E944503AC015695D2
:100650004795569547955695479541155105B9F6D5
:10066000089597FB072E16F4009407D077FD09D064
:100670000E94540307FC05D03EF4909581959F4F4E
:100680000895709561957F4F0895A29FB001B39F23
:10069000C001A39F700D811D1124911DB29F700D8B
:1006A000811D1124911D0895AA1BBB1B51E107C098
:1006B000AA1FBB1FA617B70710F0A61BB70B881FF2
:1006C000991F5A95A9F780959095BC01CD01089581
:0406D000F894FFCFCC
:00000001FF
