:100000000C9434000C9446000C9446000C9446006A
:100010000C9446000C9446000C9446000C94460048
:100020000C9446000C9446000C9446000C94460038
:100030000C9446000C9446000C9446000C94460028
:100040000C9446000C9446000C9448000C94460016
:100050000C9446000C9446000C9446000C94460008
:100060000C9446000C94460011241FBECFEFD8E03C
:10007000DEBFCDBF21E0A0E0B1E001C01D92A730FE
:10008000B207E1F70E9493000C94F8000C94000072
:100090001F920F920FB60F9211242F933F934F93FD
:1000A0005F936F937F938F939F93AF93BF93CF9300
:1000B000DF93EF93FF930E94F0008C3469F4C2E069
:1000C000D1E088830E94F00089830E94F0008A8337
:1000D0008CE40E94E8000EC0843469F7C2E0D1E0ED
:1000E00088830E94F00089830E94F0008A8384E460
:1000F0000E94E80081E090E090930101809300016C
:10010000FF91EF91DF91CF91BF91AF919F918F912F
:100110007F916F915F914F913F912F910F900FBE03
:100120000F901F9018958FEF84B98AB987E690E0F9
:100130000E94DB00E1ECF0E080818068808383E650
:1001400084BD8BE085BD84E687BD82E388BD78945D
:10015000E2E0F1E044E48091000190910101019717
:1001600019F51092010110920001818190E0C09771
:100170009C01220F331F880F991F880F991F880F2A
:10018000991F820F931F228130E020533109820F83
:10019000931F909306018093050120812C3411F464
:1001A00088BD02C0408318BC8FE39CE90197F1F73A
:1001B00000C00000D0CF9093C5008093C40010927F
:1001C000C00088E18093C10086E08093C20008955A
:1001D000E0ECF0E0908195FFFDCF8093C60008959C
:1001E000E0ECF0E080818823ECF78091C600089570
:0401F000F894FFCFB1
:00000001FF
