:100000000C9434000C9451000C9451000C94510049
:100010000C9451000C9451000C9451000C9451001C
:100020000C9451000C9451000C9451000C9451000C
:100030000C9451000C9451000C9451000C945100FC
:100040000C9400010C9451000C9466000C94510027
:100050000C9451000C9451000C9451000C945100DC
:100060000C9451000C94510011241FBECFEFD8E026
:10007000DEBFCDBF11E0A0E0B1E0E6E8F6E002C0EF
:1000800005900D92A230B107D9F721E0A2E0B1E0CE
:1000900001C01D92AD31B207E1F70E94C8010C9476
:1000A00041030C940000ECE7F0E09081987F892BED
:1000B0008083EAE7F0E0808180648083808186FD30
:1000C000FDCF809178009091790008951F920F9252
:1000D0000FB60F921124DF92EF92FF920F931F93AE
:1000E0002F933F934F935F936F937F938F939F9340
:1000F000AF93BF93CF93DF93EF93FF93D0E0C0E034
:100100000EE011E00F2EFCE4DF2EF02DEE24E39440
:10011000F12C0E94CD028C3489F4F801D0820E9427
:10012000CD02F80181830E94CD02F8018283E09222
:100130000401F09205018E2D9F2D47C0843481F477
:10014000CEE0D1E088830E94CD0289830E94CD0257
:100150008A8381E090E0909305018093040138C088
:100160008B3489F5CEE0D1E088830E94CD0289836B
:100170000E94CD028A83498150E0405351099A017F
:10018000220F331F440F551F440F551F440F551F97
:10019000240F351F90E0C097280F391FC901880F21
:1001A000991F220F331F220F331F220F331F820F7D
:1001B000931F9E5F909301018093000168E071E0BE
:1001C0000E94D50205C08D2F9C2F892B09F4A1CF49
:1001D000FF91EF91DF91CF91BF91AF919F918F915F
:1001E0007F916F915F914F913F912F911F910F914F
:1001F000FF90EF90DF900F900FBE0F901F9018951B
:100200001F920F920FB60F9211242F933F938F934B
:100210009F93EF93FF9380911101909112010196AA
:10022000843691052CF49093120180931101A5C09E
:100230001092120110921101809104019091050118
:10024000019799F51092050110920401EEE0F1E09A
:10025000818190E0C0979C01220F331F880F991F66
:10026000880F991F880F991F820F931F228130E0FA
:1002700020533109820F931F90931401809313012F
:1002800080818C3439F481E090E090931801809360
:10029000170126C0843449F41092180110921701F6
:1002A000109214011092130147C080911701909190
:1002B0001801039779F4109214011092130110920F
:1002C00003011092020182E090E090931801809364
:1002D000170150C08091170190911801019761F5A5
:1002E000209102013091030180911301909114013A
:1002F0008217930734F4215031093093030120937E
:10030000020120910201309103012817390734F4CA
:100310002F5F3F4F30930301209302012091020190
:10032000309103018217930729F582E090E09093C2
:100330001801809317011EC0809117019091180138
:10034000892BC1F4809102019091030184309105C1
:100350002CF0049790930301809302018091020195
:1003600090910301892B31F482E090E09093180181
:10037000809317018091020188BDFF91EF919F91B9
:100380008F913F912F910F900FBE0F901F90189556
:100390008FEF84B98AB987E690E00E94B802E1EC59
:1003A000F0E080818068808386E085BD81E0809375
:1003B0006E0080E480937C0087E880937A0083E677
:1003C00084BD8BE085BD84E687BD18BC7894CAE007
:1003D000D0E004E610E010920D0110920C01109292
:1003E00007011092060184E00E94530020910C0145
:1003F00030910D01820F931F90930D0180930C019A
:1004000025E32A95F1F700008091060190910701FC
:10041000019690930701809306010A9724F3809137
:100420000C0190910D01BE010E940A037093160108
:100430006093150180E00E9453009C01220F331F3E
:10044000880F991F880F991F880F991F820F931F7C
:1004500090931A0180931901209115013091160192
:1004600040910001509101012417350774F040912B
:10047000170150911801452B41F01092180110926C
:1004800017011093120100931101273F31408CF4A2
:100490008433974174F08091170190911801892B52
:1004A00041F010921801109217011093120100935D
:1004B00011018FE99FE00197F1F700C000008091E2
:1004C0001B0190911C01019690931C0180931B01CC
:1004D0008A3F91050CF47FCF10921C0110921B01F2
:1004E00068E071E080911501909116010E94D5029B
:1004F00089E40E94C5020F2EF8E0EF2EF1E0FF2EF6
:10050000F02DF70183810E94C502F70182810E94CC
:10051000C502F70181810E94C502F70180810E9416
:10052000C5028DE00E94C5028AE00E94C502B701A3
:100530008091190190911A010E94D50286E50E94CE
:10054000C502F70183810E94C502F70182810E94E2
:10055000C502F70181810E94C502F70180810E94D6
:10056000C5028DE00E94C5028AE00E94C50233CF19
:100570009093C5008093C4001092C00088E18093DE
:10058000C10086E08093C2000895E0ECF0E0908125
:1005900095FFFDCF8093C6000895E0ECF0E08081E8
:1005A0008823ECF78091C6000895AC01FB01DB01C4
:1005B0009B012B5F3F4F80E38D93A217B307E1F7B9
:1005C0009A01ADECBCEC0E941E039695879596951A
:1005D0008795969587959C01220F331F880F991F49
:1005E000880F991F880F991F820F931F9A01281B4C
:1005F000390BC901805D81939A010E941E03AC01F1
:1006000056954795569547955695479541155105E9
:10061000B9F6089597FB072E16F4009407D077FDDE
:1006200009D00E942D0307FC05D03EF490958195DA
:100630009F4F0895709561957F4F0895A29FB001D7
:10064000B39FC001A39F700D811D1124911DB29F06
:10065000700D811D1124911D0895AA1BBB1B51E132
:1006600007C0AA1FBB1FA617B70710F0A61BB70B22
:10067000881F991F5A95A9F780959095BC01CD01C7
:060680000895F894FFCF7D
:02068600580218
:00000001FF
